:1000000030313233343536373839303132333435B4
:100010003637383930313233343536373839303194
:100020003233343536373839313233343536373880
:100030003930313233343536373839303132333480
:100040003536373839303132333435363738393060
:100050003233343536373839303132333435363758
:10006000383930313233343536373839303132334C
:10007000343536373839303133343536373839302E
:10008000313233343536373839303132333435362E
:100090003738393031323334353637383930313218
:1000A00034353637383930313233343536373839FC
:1000B0003031323334353637383930313233343504
:1000C00036373839303132333536373839303132E6
:1000D00033343536373839303132333435363738D2
:1000E00039303132333435363738393031323334D0
:1000F00036373839303132333435363738393031B4
:1001000032333435363738393031323334353637A7
:10011000383930313233343537383930313233349D
:10012000353637383930313233343536373839307F
:10013000313233343536373839303132333435367D
:10014000383930313233343536373839303132336B
:10015000343536373839303132333435363738394B
:100160003031323334353637393031323334353655
:100170003738393031323334353637383930313237
:100180003334353637383930313233343536373821
:100190003031323334353637383930313233343523
:1001A0003637383930313233343536373839303103
:1001B00032333435363738393132333435363738EF
:1001C00039303132333435363738393031323334EF
:1001D00035363738393031323334353637383930CF
:1001E00032333435363738393031323334353637C7
:1001F00038393031323334353637383930313233BB
:10020000343536373839303133343536373839309C
:10021000313233343536373839303132333435369C
:100220003738393031323334353637383930313286
:10023000343536373839303132333435363738396A
:100240003031323334353637383930313233343572
:100250003637383930313233353637383930313254
:100260003334353637383930313233343536373840
:10027000393031323334353637383930313233343E
:100280003637383930313233343536373839303122
:100290003233343536373839303132333435363716
:1002A000383930313233343537383930313233340C
:1002B00035363738393031323334353637383930EE
:1002C00031323334353637383930313233343536EC
:1002D00038393031323334353637383930313233DA
:1002E00034353637383930313233343536373839BA
:1002F00030313233343536373930313233343536C4
:1003000037383930313233343536373839303132A5
:10031000333435363738393031323334353637388F
:100320003031323334353637383930313233343591
:100330003637383930313233343536373839303171
:10034000323334353637383931323334353637385D
:10035000393031323334353637383930313233345D
:10036000353637383930313233343536373839303D
:100370003233343536373839303132333435363735
:100380003839303132333435363738393031323329
:10039000343536373839303133343536373839300B
:1003A000313233343536373839303132333435360B
:1003B00037383930313233343536373839303132F5
:1003C00034353637383930313233343536373839D9
:1003D00030313233343536373839303132333435E1
:1003E00036373839303132333536373839303132C3
:1003F00033343536373839303132333435363738AF
:1004000039303132333435363738393031323334AC
:100410003637383930313233343536373839303190
:100420003233343536373839303132333435363784
:10043000383930313233343537383930313233347A
:10044000353637383930313233343536373839305C
:10045000313233343536373839303132333435365A
:100460003839303132333435363738393031323348
:100470003435363738393031323334353637383928
:100480003031323334353637393031323334353632
:100490003738393031323334353637383930313214
:1004A00033343536373839303132333435363738FE
:1004B0003031323334353637383930313233343500
:1004C00036373839303132333435363738393031E0
:1004D00032333435363738393132333435363738CC
:1004E00039303132333435363738393031323334CC
:1004F00035363738393031323334353637383930AC
:1005000032333435363738393031323334353637A3
:100510003839303132333435363738393031323397
:100520003435363738393031333435363738393079
:100530003132333435363738393031323334353679
:100540003738393031323334353637383930313263
:100550003435363738393031323334353637383947
:10056000303132333435363738393031323334354F
:100570003637383930313233353637383930313231
:10058000333435363738393031323334353637381D
:10059000393031323334353637383930313233341B
:1005A00036373839303132333435363738393031FF
:1005B00032333435363738393031323334353637F3
:1005C00038393031323334353738393031323334E9
:1005D00035363738393031323334353637383930CB
:1005E00031323334353637383930313233343536C9
:1005F00038393031323334353637383930313233B7
:100600003435363738393031323334353637383996
:1006100030313233343536373930313233343536A0
:100620003738393031323334353637383930313282
:10063000333435363738393031323334353637386C
:10064000303132333435363738393031323334356E
:10065000363738393031323334353637383930314E
:10066000323334353637383931323334353637383A
:10067000393031323334353637383930313233343A
:10068000353637383930313233343536373839301A
:100690003233343536373839303132333435363712
:1006A0003839303132333435363738393031323306
:1006B00034353637383930313334353637383930E8
:1006C00031323334353637383930313233343536E8
:1006D00037383930313233343536373839303132D2
:1006E00034353637383930313233343536373839B6
:1006F00030313233343536373839303132333435BE
:10070000363738393031323335363738393031329F
:10071000333435363738393031323334353637388B
:100720003930313233343536373839303132333489
:10073000363738393031323334353637383930316D
:100740003233343536373839303132333435363761
:100750003839303132333435373839303132333457
:100760003536373839303132333435363738393039
:100770003132333435363738393031323334353637
:100780003839303132333435363738393031323325
:100790003435363738393031323334353637383905
:1007A000303132333435363739303132333435360F
:1007B00037383930313233343536373839303132F1
:1007C00033343536373839303132333435363738DB
:1007D00030313233343536373839303132333435DD
:1007E00036373839303132333435363738393031BD
:1007F00032333435363738393132333435363738A9
:1008000039303132333435363738393031323334A8
:100810003536373839303132333435363738393088
:100820003233343536373839303132333435363780
:100830003839303132333435363738393031323374
:100840003435363738393031333435363738393056
:100850003132333435363738393031323334353656
:100860003738393031323334353637383930313240
:100870003435363738393031323334353637383924
:10088000303132333435363738393031323334352C
:10089000363738393031323335363738393031320E
:1008A00033343536373839303132333435363738FA
:1008B00039303132333435363738393031323334F8
:1008C00036373839303132333435363738393031DC
:1008D00032333435363738393031323334353637D0
:1008E00038393031323334353738393031323334C6
:1008F00035363738393031323334353637383930A8
:1009000031323334353637383930313233343536A5
:100910003839303132333435363738393031323393
:100920003435363738393031323334353637383973
:10093000303132333435363739303132333435367D
:10094000373839303132333435363738393031325F
:100950003334353637383930313233343536373849
:10096000303132333435363738393031323334354B
:10097000363738393031323334353637383930312B
:100980003233343536373839313233343536373817
:100990003930313233343536373839303132333417
:1009A00035363738393031323334353637383930F7
:1009B00032333435363738393031323334353637EF
:1009C00038393031323334353637383930313233E3
:1009D00034353637383930313334353637383930C5
:1009E00031323334353637383930313233343536C5
:1009F00037383930313233343536373839303132AF
:100A00003435363738393031323334353637383992
:100A1000303132333435363738393031323334359A
:100A2000363738393031323335363738393031327C
:100A30003334353637383930313233343536373868
:100A40003930313233343536373839303132333466
:100A5000363738393031323334353637383930314A
:100A6000323334353637383930313233343536373E
:100A70003839303132333435373839303132333434
:100A80003536373839303132333435363738393016
:100A90003132333435363738393031323334353614
:100AA0003839303132333435363738393031323302
:100AB00034353637383930313233343536373839E2
:100AC00030313233343536373930313233343536EC
:100AD00037383930313233343536373839303132CE
:100AE00033343536373839303132333435363738B8
:100AF00030313233343536373839303132333435BA
:100B00003637383930313233343536373839303199
:100B10003233343536373839313233343536373885
:100B20003930313233343536373839303132333485
:100B30003536373839303132333435363738393065
:100B4000323334353637383930313233343536375D
:100B50003839303132333435363738393031323351
:100B60003435363738393031333435363738393033
:100B70003132333435363738393031323334353633
:100B8000373839303132333435363738393031321D
:100B90003435363738393031323334353637383901
:100BA0003031323334353637383930313233343509
:100BB00036373839303132333536373839303132EB
:100BC00033343536373839303132333435363738D7
:100BD00039303132333435363738393031323334D5
:100BE00036373839303132333435363738393031B9
:100BF00032333435363738393031323334353637AD
:100C000038393031323334353738393031323334A2
:100C10003536373839303132333435363738393084
:100C20003132333435363738393031323334353682
:100C30003839303132333435363738393031323370
:100C40003435363738393031323334353637383950
:100C5000303132333435363739303132333435365A
:100C6000373839303132333435363738393031323C
:100C70003334353637383930313233343536373826
:100C80003031323334353637383930313233343528
:100C90003637383930313233343536373839303108
:100CA00032333435363738393132333435363738F4
:100CB00039303132333435363738393031323334F4
:100CC00035363738393031323334353637383930D4
:100CD00032333435363738393031323334353637CC
:100CE00038393031323334353637383930313233C0
:100CF00034353637383930313334353637383930A2
:100D000031323334353637383930313233343536A1
:100D1000373839303132333435363738393031328B
:100D2000343536373839303132333435363738396F
:100D30003031323334353637383930313233343577
:100D40003637383930313233353637383930313259
:100D50003334353637383930313233343536373845
:100D60003930313233343536373839303132333443
:100D70003637383930313233343536373839303127
:100D8000323334353637383930313233343536371B
:100D90003839303132333435373839303132333411
:100DA00035363738393031323334353637383930F3
:100DB00031323334353637383930313233343536F1
:100DC00038393031323334353637383930313233DF
:100DD00034353637383930313233343536373839BF
:100DE00030313233343536373930313233343536C9
:100DF00037383930313233343536373839303132AB
:100E00003334353637383930313233343536373894
:100E10003031323334353637383930313233343596
:100E20003637383930313233343536373839303176
:100E30003233343536373839313233343536373862
:100E40003930313233343536373839303132333462
:100E50003536373839303132333435363738393042
:100E6000323334353637383930313233343536373A
:100E7000383930313233343536373839303132332E
:100E80003435363738393031333435363738393010
:100E90003132333435363738393031323334353610
:100EA00037383930313233343536373839303132FA
:100EB00034353637383930313233343536373839DE
:100EC00030313233343536373839303132333435E6
:100ED00036373839303132333536373839303132C8
:100EE00033343536373839303132333435363738B4
:100EF00039303132333435363738393031323334B2
:100F00003637383930313233343536373839303195
:100F10003233343536373839303132333435363789
:100F2000383930313233343537383930313233347F
:100F30003536373839303132333435363738393061
:100F4000313233343536373839303132333435365F
:100F5000383930313233343536373839303132334D
:100F6000343536373839303132333435363738392D
:100F70003031323334353637393031323334353637
:100F80003738393031323334353637383930313219
:100F90003334353637383930313233343536373803
:100FA0003031323334353637383930313233343505
:100FB00036373839303132333435363738393031E5
:100FC00032333435363738393132333435363738D1
:100FD00039303132333435363738393031323334D1
:100FE00035363738393031323334353637383930B1
:100FF00032333435363738393031323334353637A9
:10100000383930313233343536373839303132339C
:10101000343536373839303133343536373839307E
:10102000313233343536373839303132333435367E
:101030003738393031323334353637383930313268
:10104000343536373839303132333435363738394C
:101050003031323334353637383930313233343554
:101060003637383930313233353637383930313236
:101070003334353637383930313233343536373822
:101080003930313233343536373839303132333420
:101090003637383930313233343536373839303104
:1010A00032333435363738393031323334353637F8
:1010B00038393031323334353738393031323334EE
:1010C00035363738393031323334353637383930D0
:1010D00031323334353637383930313233343536CE
:1010E00038393031323334353637383930313233BC
:1010F000343536373839303132333435363738399C
:1011000030313233343536373930313233343536A5
:101110003738393031323334353637383930313287
:101120003334353637383930313233343536373871
:101130003031323334353637383930313233343573
:101140003637383930313233343536373839303153
:10115000323334353637383931323334353637383F
:10116000393031323334353637383930313233343F
:10117000353637383930313233343536373839301F
:101180003233343536373839303132333435363717
:10119000383930313233343536373839303132330B
:1011A00034353637383930313334353637383930ED
:1011B00031323334353637383930313233343536ED
:1011C00037383930313233343536373839303132D7
:1011D00034353637383930313233343536373839BB
:1011E00030313233343536373839303132333435C3
:1011F00036373839303132333536373839303132A5
:101200003334353637383930313233343536373890
:10121000393031323334353637383930313233348E
:101220003637383930313233343536373839303172
:101230003233343536373839303132333435363766
:10124000383930313233343537383930313233345C
:10125000353637383930313233343536373839303E
:10126000313233343536373839303132333435363C
:10127000383930313233343536373839303132332A
:10128000343536373839303132333435363738390A
:101290003031323334353637393031323334353614
:1012A00037383930313233343536373839303132F6
:1012B00033343536373839303132333435363738E0
:1012C00030313233343536373839303132333435E2
:1012D00036373839303132333435363738393031C2
:1012E00032333435363738393132333435363738AE
:1012F00039303132333435363738393031323334AE
:10130000353637383930313233343536373839308D
:101310003233343536373839303132333435363785
:101320003839303132333435363738393031323379
:10133000343536373839303133343536373839305B
:10134000313233343536373839303132333435365B
:101350003738393031323334353637383930313245
:101360003435363738393031323334353637383929
:101370003031323334353637383930313233343531
:101380003637383930313233353637383930313213
:1013900033343536373839303132333435363738FF
:1013A00039303132333435363738393031323334FD
:1013B00036373839303132333435363738393031E1
:1013C00032333435363738393031323334353637D5
:1013D00038393031323334353738393031323334CB
:1013E00035363738393031323334353637383930AD
:1013F00031323334353637383930313233343536AB
:101400003839303132333435363738393031323398
:101410003435363738393031323334353637383978
:101420003031323334353637393031323334353682
:101430003738393031323334353637383930313264
:10144000333435363738393031323334353637384E
:101450003031323334353637383930313233343550
:101460003637383930313233343536373839303130
:10147000323334353637383931323334353637381C
:10148000393031323334353637383930313233341C
:1014900035363738393031323334353637383930FC
:1014A00032333435363738393031323334353637F4
:1014B00038393031323334353637383930313233E8
:1014C00034353637383930313334353637383930CA
:1014D00031323334353637383930313233343536CA
:1014E00037383930313233343536373839303132B4
:1014F0003435363738393031323334353637383998
:10150000303132333435363738393031323334359F
:101510003637383930313233353637383930313281
:10152000333435363738393031323334353637386D
:10153000393031323334353637383930313233346B
:10154000363738393031323334353637383930314F
:101550003233343536373839303132333435363743
:101560003839303132333435373839303132333439
:10157000353637383930313233343536373839301B
:101580003132333435363738393031323334353619
:101590003839303132333435363738393031323307
:1015A00034353637383930313233343536373839E7
:1015B00030313233343536373930313233343536F1
:1015C00037383930313233343536373839303132D3
:1015D00033343536373839303132333435363738BD
:1015E00030313233343536373839303132333435BF
:1015F000363738393031323334353637383930319F
:10160000323334353637383931323334353637388A
:10161000393031323334353637383930313233348A
:10162000353637383930313233343536373839306A
:101630003233343536373839303132333435363762
:101640003839303132333435363738393031323356
:101650003435363738393031333435363738393038
:101660003132333435363738393031323334353638
:101670003738393031323334353637383930313222
:101680003435363738393031323334353637383906
:10169000303132333435363738393031323334350E
:1016A00036373839303132333536373839303132F0
:1016B00033343536373839303132333435363738DC
:1016C00039303132333435363738393031323334DA
:1016D00036373839303132333435363738393031BE
:1016E00032333435363738393031323334353637B2
:1016F00038393031323334353738393031323334A8
:101700003536373839303132333435363738393089
:101710003132333435363738393031323334353687
:101720003839303132333435363738393031323375
:101730003435363738393031323334353637383955
:10174000303132333435363739303132333435365F
:101750003738393031323334353637383930313241
:10176000333435363738393031323334353637382B
:10177000303132333435363738393031323334352D
:10178000363738393031323334353637383930310D
:1017900032333435363738393132333435363738F9
:1017A00039303132333435363738393031323334F9
:1017B00035363738393031323334353637383930D9
:1017C00032333435363738393031323334353637D1
:1017D00038393031323334353637383930313233C5
:1017E00034353637383930313334353637383930A7
:1017F00031323334353637383930313233343536A7
:101800003738393031323334353637383930313290
:101810003435363738393031323334353637383974
:10182000303132333435363738393031323334357C
:10183000363738393031323335363738393031325E
:10184000333435363738393031323334353637384A
:101850003930313233343536373839303132333448
:10186000363738393031323334353637383930312C
:101870003233343536373839303132333435363720
:101880003839303132333435373839303132333416
:1018900035363738393031323334353637383930F8
:1018A00031323334353637383930313233343536F6
:1018B00038393031323334353637383930313233E4
:1018C00034353637383930313233343536373839C4
:1018D00030313233343536373930313233343536CE
:1018E00037383930313233343536373839303132B0
:1018F000333435363738393031323334353637389A
:10190000303132333435363738393031323334359B
:10191000363738393031323334353637383930317B
:101920003233343536373839313233343536373867
:101930003930313233343536373839303132333467
:101940003536373839303132333435363738393047
:10195000323334353637383930313233343536373F
:101960003839303132333435363738393031323333
:101970003435363738393031333435363738393015
:101980003132333435363738393031323334353615
:1019900037383930313233343536373839303132FF
:1019A00034353637383930313233343536373839E3
:1019B00030313233343536373839303132333435EB
:1019C00036373839303132333536373839303132CD
:1019D00033343536373839303132333435363738B9
:1019E00039303132333435363738393031323334B7
:1019F000363738393031323334353637383930319B
:101A0000323334353637383930313233343536378E
:101A10003839303132333435373839303132333484
:101A20003536373839303132333435363738393066
:101A30003132333435363738393031323334353664
:101A40003839303132333435363738393031323352
:101A50003435363738393031323334353637383932
:101A6000303132333435363739303132333435363C
:101A7000373839303132333435363738393031321E
:101A80003334353637383930313233343536373808
:101A9000303132333435363738393031323334350A
:101AA00036373839303132333435363738393031EA
:101AB00032333435363738393132333435363738D6
:101AC00039303132333435363738393031323334D6
:101AD00035363738393031323334353637383930B6
:101AE00032333435363738393031323334353637AE
:101AF00038393031323334353637383930313233A2
:101B00003435363738393031333435363738393083
:101B10003132333435363738393031323334353683
:101B2000373839303132333435363738393031326D
:101B30003435363738393031323334353637383951
:101B40003031323334353637383930313233343559
:101B5000363738393031323335363738393031323B
:101B60003334353637383930313233343536373827
:101B70003930313233343536373839303132333425
:101B80003637383930313233343536373839303109
:101B900032333435363738393031323334353637FD
:101BA00038393031323334353738393031323334F3
:101BB00035363738393031323334353637383930D5
:101BC00031323334353637383930313233343536D3
:101BD00038393031323334353637383930313233C1
:101BE00034353637383930313233343536373839A1
:101BF00030313233343536373930313233343536AB
:101C0000373839303132333435363738393031328C
:101C10003334353637383930313233343536373876
:101C20003031323334353637383930313233343578
:101C30003637383930313233343536373839303158
:101C40003233343536373839313233343536373844
:101C50003930313233343536373839303132333444
:101C60003536373839303132333435363738393024
:101C7000323334353637383930313233343536371C
:101C80003839303132333435363738393031323310
:101C900034353637383930313334353637383930F2
:101CA00031323334353637383930313233343536F2
:101CB00037383930313233343536373839303132DC
:101CC00034353637383930313233343536373839C0
:101CD00030313233343536373839303132333435C8
:101CE00036373839303132333536373839303132AA
:101CF0003334353637383930313233343536373896
:101D00003930313233343536373839303132333493
:101D10003637383930313233343536373839303177
:101D2000323334353637383930313233343536376B
:101D30003839303132333435373839303132333461
:101D40003536373839303132333435363738393043
:101D50003132333435363738393031323334353641
:101D6000383930313233343536373839303132332F
:101D7000343536373839303132333435363738390F
:101D80003031323334353637393031323334353619
:101D900037383930313233343536373839303132FB
:101DA00033343536373839303132333435363738E5
:101DB00030313233343536373839303132333435E7
:101DC00036373839303132333435363738393031C7
:101DD00032333435363738393132333435363738B3
:101DE00039303132333435363738393031323334B3
:101DF0003536373839303132333435363738393093
:101E0000323334353637383930313233343536378A
:101E1000383930313233343536373839303132337E
:101E20003435363738393031333435363738393060
:101E30003132333435363738393031323334353660
:101E4000373839303132333435363738393031324A
:101E5000343536373839303132333435363738392E
:101E60003031323334353637383930313233343536
:101E70003637383930313233353637383930313218
:101E80003334353637383930313233343536373804
:101E90003930313233343536373839303132333402
:101EA00036373839303132333435363738393031E6
:101EB00032333435363738393031323334353637DA
:101EC00038393031323334353738393031323334D0
:101ED00035363738393031323334353637383930B2
:101EE00031323334353637383930313233343536B0
:101EF000383930313233343536373839303132339E
:101F0000343536373839303132333435363738397D
:101F10003031323334353637393031323334353687
:101F20003738393031323334353637383930313269
:101F30003334353637383930313233343536373853
:101F40003031323334353637383930313233343555
:101F50003637383930313233343536373839303135
:101F60003233343536373839313233343536373821
:101F70003930313233343536373839303132333421
:101F80003536373839303132333435363738393001
:101F900032333435363738393031323334353637F9
:101FA00038393031323334353637383930313233ED
:101FB00034353637383930313334353637383930CF
:101FC00031323334353637383930313233343536CF
:101FD00037383930313233343536373839303132B9
:101FE000343536373839303132333435363738399D
:101FF00030313233343536373839303132333435A5
:102000003637383930313233353637383930313286
:102010003334353637383930313233343536373872
:102020003930313233343536373839303132333470
:102030003637383930313233343536373839303154
:102040003233343536373839303132333435363748
:10205000383930313233343537383930313233343E
:102060003536373839303132333435363738393020
:10207000313233343536373839303132333435361E
:10208000383930313233343536373839303132330C
:1020900034353637383930313233343536373839EC
:1020A00030313233343536373930313233343536F6
:1020B00037383930313233343536373839303132D8
:1020C00033343536373839303132333435363738C2
:1020D00030313233343536373839303132333435C4
:1020E00036373839303132333435363738393031A4
:1020F0003233343536373839313233343536373890
:10210000393031323334353637383930313233348F
:10211000353637383930313233343536373839306F
:102120003233343536373839303132333435363767
:10213000383930313233343536373839303132335B
:10214000343536373839303133343536373839303D
:10215000313233343536373839303132333435363D
:102160003738393031323334353637383930313227
:10217000343536373839303132333435363738390B
:102180003031323334353637383930313233343513
:1021900036373839303132333536373839303132F5
:1021A00033343536373839303132333435363738E1
:1021B00039303132333435363738393031323334DF
:1021C00036373839303132333435363738393031C3
:1021D00032333435363738393031323334353637B7
:1021E00038393031323334353738393031323334AD
:1021F000353637383930313233343536373839308F
:10220000313233343536373839303132333435368C
:10221000383930313233343536373839303132337A
:10222000343536373839303132333435363738395A
:102230003031323334353637393031323334353664
:102240003738393031323334353637383930313246
:102250003334353637383930313233343536373830
:102260003031323334353637383930313233343532
:102270003637383930313233343536373839303112
:1022800032333435363738393132333435363738FE
:1022900039303132333435363738393031323334FE
:1022A00035363738393031323334353637383930DE
:1022B00032333435363738393031323334353637D6
:1022C00038393031323334353637383930313233CA
:1022D00034353637383930313334353637383930AC
:1022E00031323334353637383930313233343536AC
:1022F0003738393031323334353637383930313296
:102300003435363738393031323334353637383979
:102310003031323334353637383930313233343581
:102320003637383930313233353637383930313263
:10233000333435363738393031323334353637384F
:10234000393031323334353637383930313233344D
:102350003637383930313233343536373839303131
:102360003233343536373839303132333435363725
:10237000383930313233343537383930313233341B
:1023800035363738393031323334353637383930FD
:1023900031323334353637383930313233343536FB
:1023A00038393031323334353637383930313233E9
:1023B00034353637383930313233343536373839C9
:1023C00030313233343536373930313233343536D3
:1023D00037383930313233343536373839303132B5
:1023E000333435363738393031323334353637389F
:1023F00030313233343536373839303132333435A1
:102400003637383930313233343536373839303180
:10241000323334353637383931323334353637386C
:10242000393031323334353637383930313233346C
:10243000353637383930313233343536373839304C
:102440003233343536373839303132333435363744
:102450003839303132333435363738393031323338
:10246000343536373839303133343536373839301A
:10247000313233343536373839303132333435361A
:102480003738393031323334353637383930313204
:1024900034353637383930313233343536373839E8
:1024A00030313233343536373839303132333435F0
:1024B00036373839303132333536373839303132D2
:1024C00033343536373839303132333435363738BE
:1024D00039303132333435363738393031323334BC
:1024E00036373839303132333435363738393031A0
:1024F0003233343536373839303132333435363794
:102500003839303132333435373839303132333489
:10251000353637383930313233343536373839306B
:102520003132333435363738393031323334353669
:102530003839303132333435363738393031323357
:102540003435363738393031323334353637383937
:102550003031323334353637393031323334353641
:102560003738393031323334353637383930313223
:10257000333435363738393031323334353637380D
:10258000303132333435363738393031323334350F
:1025900036373839303132333435363738393031EF
:1025A00032333435363738393132333435363738DB
:1025B00039303132333435363738393031323334DB
:1025C00035363738393031323334353637383930BB
:1025D00032333435363738393031323334353637B3
:1025E00038393031323334353637383930313233A7
:1025F0003435363738393031333435363738393089
:102600003132333435363738393031323334353688
:102610003738393031323334353637383930313272
:102620003435363738393031323334353637383956
:10263000303132333435363738393031323334355E
:102640003637383930313233353637383930313240
:10265000333435363738393031323334353637382C
:10266000393031323334353637383930313233342A
:10267000363738393031323334353637383930310E
:102680003233343536373839303132333435363702
:1026900038393031323334353738393031323334F8
:1026A00035363738393031323334353637383930DA
:1026B00031323334353637383930313233343536D8
:1026C00038393031323334353637383930313233C6
:1026D00034353637383930313233343536373839A6
:1026E00030313233343536373930313233343536B0
:1026F0003738393031323334353637383930313292
:10270000333435363738393031323334353637387B
:10271000303132333435363738393031323334357D
:10272000363738393031323334353637383930315D
:102730003233343536373839313233343536373849
:102740003930313233343536373839303132333449
:102750003536373839303132333435363738393029
:102760003233343536373839303132333435363721
:102770003839303132333435363738393031323315
:1027800034353637383930313334353637383930F7
:1027900031323334353637383930313233343536F7
:1027A00037383930313233343536373839303132E1
:1027B00034353637383930313233343536373839C5
:1027C00030313233343536373839303132333435CD
:1027D00036373839303132333536373839303132AF
:1027E000333435363738393031323334353637389B
:1027F0003930313233343536373839303132333499
:10280000363738393031323334353637383930317C
:102810003233343536373839303132333435363770
:102820003839303132333435373839303132333466
:102830003536373839303132333435363738393048
:102840003132333435363738393031323334353646
:102850003839303132333435363738393031323334
:102860003435363738393031323334353637383914
:10287000303132333435363739303132333435361E
:102880003738393031323334353637383930313200
:1028900033343536373839303132333435363738EA
:1028A00030313233343536373839303132333435EC
:1028B00036373839303132333435363738393031CC
:1028C00032333435363738393132333435363738B8
:1028D00039303132333435363738393031323334B8
:1028E0003536373839303132333435363738393098
:1028F0003233343536373839303132333435363790
:102900003839303132333435363738393031323383
:102910003435363738393031333435363738393065
:102920003132333435363738393031323334353665
:10293000373839303132333435363738393031324F
:102940003435363738393031323334353637383933
:10295000303132333435363738393031323334353B
:10296000363738393031323335363738393031321D
:102970003334353637383930313233343536373809
:102980003930313233343536373839303132333407
:1029900036373839303132333435363738393031EB
:1029A00032333435363738393031323334353637DF
:1029B00038393031323334353738393031323334D5
:1029C00035363738393031323334353637383930B7
:1029D00031323334353637383930313233343536B5
:1029E00038393031323334353637383930313233A3
:1029F0003435363738393031323334353637383983
:102A0000303132333435363739303132333435368C
:102A1000373839303132333435363738393031326E
:102A20003334353637383930313233343536373858
:102A3000303132333435363738393031323334355A
:102A4000363738393031323334353637383930313A
:102A50003233343536373839313233343536373826
:102A60003930313233343536373839303132333426
:102A70003536373839303132333435363738393006
:102A800032333435363738393031323334353637FE
:102A900038393031323334353637383930313233F2
:102AA00034353637383930313334353637383930D4
:102AB00031323334353637383930313233343536D4
:102AC00037383930313233343536373839303132BE
:102AD00034353637383930313233343536373839A2
:102AE00030313233343536373839303132333435AA
:102AF000363738393031323335363738393031328C
:102B00003334353637383930313233343536373877
:102B10003930313233343536373839303132333475
:102B20003637383930313233343536373839303159
:102B3000323334353637383930313233343536374D
:102B40003839303132333435373839303132333443
:102B50003536373839303132333435363738393025
:102B60003132333435363738393031323334353623
:102B70003839303132333435363738393031323311
:102B800034353637383930313233343536373839F1
:102B900030313233343536373930313233343536FB
:102BA00037383930313233343536373839303132DD
:102BB00033343536373839303132333435363738C7
:102BC00030313233343536373839303132333435C9
:102BD00036373839303132333435363738393031A9
:102BE0003233343536373839313233343536373895
:102BF0003930313233343536373839303132333495
:102C00003536373839303132333435363738393074
:102C1000323334353637383930313233343536376C
:102C20003839303132333435363738393031323360
:102C30003435363738393031333435363738393042
:102C40003132333435363738393031323334353642
:102C5000373839303132333435363738393031322C
:102C60003435363738393031323334353637383910
:102C70003031323334353637383930313233343518
:102C800036373839303132333536373839303132FA
:102C900033343536373839303132333435363738E6
:102CA00039303132333435363738393031323334E4
:102CB00036373839303132333435363738393031C8
:102CC00032333435363738393031323334353637BC
:102CD00038393031323334353738393031323334B2
:102CE0003536373839303132333435363738393094
:102CF0003132333435363738393031323334353692
:102D0000383930313233343536373839303132337F
:102D1000343536373839303132333435363738395F
:102D20003031323334353637393031323334353669
:102D3000373839303132333435363738393031324B
:102D40003334353637383930313233343536373835
:102D50003031323334353637383930313233343537
:102D60003637383930313233343536373839303117
:102D70003233343536373839313233343536373803
:102D80003930313233343536373839303132333403
:102D900035363738393031323334353637383930E3
:102DA00032333435363738393031323334353637DB
:102DB00038393031323334353637383930313233CF
:102DC00034353637383930313334353637383930B1
:102DD00031323334353637383930313233343536B1
:102DE000373839303132333435363738393031329B
:102DF000343536373839303132333435363738397F
:102E00003031323334353637383930313233343586
:102E10003637383930313233353637383930313268
:102E20003334353637383930313233343536373854
:102E30003930313233343536373839303132333452
:102E40003637383930313233343536373839303136
:102E5000323334353637383930313233343536372A
:102E60003839303132333435373839303132333420
:102E70003536373839303132333435363738393002
:102E80003132333435363738393031323334353600
:102E900038393031323334353637383930313233EE
:102EA00034353637383930313233343536373839CE
:102EB00030313233343536373930313233343536D8
:102EC00037383930313233343536373839303132BA
:102ED00033343536373839303132333435363738A4
:102EE00030313233343536373839303132333435A6
:102EF0003637383930313233343536373839303186
:102F00003233343536373839313233343536373871
:102F10003930313233343536373839303132333471
:102F20003536373839303132333435363738393051
:102F30003233343536373839303132333435363749
:102F4000383930313233343536373839303132333D
:102F5000343536373839303133343536373839301F
:102F6000313233343536373839303132333435361F
:102F70003738393031323334353637383930313209
:102F800034353637383930313233343536373839ED
:102F900030313233343536373839303132333435F5
:102FA00036373839303132333536373839303132D7
:102FB00033343536373839303132333435363738C3
:102FC00039303132333435363738393031323334C1
:102FD00036373839303132333435363738393031A5
:102FE0003233343536373839303132333435363799
:102FF000383930313233343537383930313233348F
:103000003536373839303132333435363738393070
:10301000313233343536373839303132333435366E
:10302000383930313233343536373839303132335C
:10303000343536373839303132333435363738393C
:103040003031323334353637393031323334353646
:103050003738393031323334353637383930313228
:103060003334353637383930313233343536373812
:103070003031323334353637383930313233343514
:1030800036373839303132333435363738393031F4
:1030900032333435363738393132333435363738E0
:1030A00039303132333435363738393031323334E0
:1030B00035363738393031323334353637383930C0
:1030C00032333435363738393031323334353637B8
:1030D00038393031323334353637383930313233AC
:1030E000343536373839303133343536373839308E
:1030F000313233343536373839303132333435368E
:103100003738393031323334353637383930313277
:10311000343536373839303132333435363738395B
:103120003031323334353637383930313233343563
:103130003637383930313233353637383930313245
:103140003334353637383930313233343536373831
:10315000393031323334353637383930313233342F
:103160003637383930313233343536373839303113
:103170003233343536373839303132333435363707
:1031800038393031323334353738393031323334FD
:1031900035363738393031323334353637383930DF
:1031A00031323334353637383930313233343536DD
:1031B00038393031323334353637383930313233CB
:1031C00034353637383930313233343536373839AB
:1031D00030313233343536373930313233343536B5
:1031E0003738393031323334353637383930313297
:1031F0003334353637383930313233343536373881
:103200003031323334353637383930313233343582
:103210003637383930313233343536373839303162
:10322000323334353637383931323334353637384E
:10323000393031323334353637383930313233344E
:10324000353637383930313233343536373839302E
:103250003233343536373839303132333435363726
:10326000383930313233343536373839303132331A
:1032700034353637383930313334353637383930FC
:1032800031323334353637383930313233343536FC
:1032900037383930313233343536373839303132E6
:1032A00034353637383930313233343536373839CA
:1032B00030313233343536373839303132333435D2
:1032C00036373839303132333536373839303132B4
:1032D00033343536373839303132333435363738A0
:1032E000393031323334353637383930313233349E
:1032F0003637383930313233343536373839303182
:103300003233343536373839303132333435363775
:10331000383930313233343537383930313233346B
:10332000353637383930313233343536373839304D
:10333000313233343536373839303132333435364B
:103340003839303132333435363738393031323339
:103350003435363738393031323334353637383919
:103360003031323334353637393031323334353623
:103370003738393031323334353637383930313205
:1033800033343536373839303132333435363738EF
:1033900030313233343536373839303132333435F1
:1033A00036373839303132333435363738393031D1
:1033B00032333435363738393132333435363738BD
:1033C00039303132333435363738393031323334BD
:1033D000353637383930313233343536373839309D
:1033E0003233343536373839303132333435363795
:1033F0003839303132333435363738393031323389
:10340000343536373839303133343536373839306A
:10341000313233343536373839303132333435366A
:103420003738393031323334353637383930313254
:103430003435363738393031323334353637383938
:103440003031323334353637383930313233343540
:103450003637383930313233353637383930313222
:10346000333435363738393031323334353637380E
:10347000393031323334353637383930313233340C
:1034800036373839303132333435363738393031F0
:1034900032333435363738393031323334353637E4
:1034A00038393031323334353738393031323334DA
:1034B00035363738393031323334353637383930BC
:1034C00031323334353637383930313233343536BA
:1034D00038393031323334353637383930313233A8
:1034E0003435363738393031323334353637383988
:1034F0003031323334353637393031323334353692
:103500003738393031323334353637383930313273
:10351000333435363738393031323334353637385D
:10352000303132333435363738393031323334355F
:10353000363738393031323334353637383930313F
:10354000323334353637383931323334353637382B
:10355000393031323334353637383930313233342B
:10356000353637383930313233343536373839300B
:103570003233343536373839303132333435363703
:1035800038393031323334353637383930313233F7
:1035900034353637383930313334353637383930D9
:1035A00031323334353637383930313233343536D9
:1035B00037383930313233343536373839303132C3
:1035C00034353637383930313233343536373839A7
:1035D00030313233343536373839303132333435AF
:1035E0003637383930313233353637383930313291
:1035F000333435363738393031323334353637387D
:10360000393031323334353637383930313233347A
:10361000363738393031323334353637383930315E
:103620003233343536373839303132333435363752
:103630003839303132333435373839303132333448
:10364000353637383930313233343536373839302A
:103650003132333435363738393031323334353628
:103660003839303132333435363738393031323316
:1036700034353637383930313233343536373839F6
:103680003031323334353637393031323334353600
:1036900037383930313233343536373839303132E2
:1036A00033343536373839303132333435363738CC
:1036B00030313233343536373839303132333435CE
:1036C00036373839303132333435363738393031AE
:1036D000323334353637383931323334353637389A
:1036E000393031323334353637383930313233349A
:1036F000353637383930313233343536373839307A
:103700003233343536373839303132333435363771
:103710003839303132333435363738393031323365
:103720003435363738393031333435363738393047
:103730003132333435363738393031323334353647
:103740003738393031323334353637383930313231
:103750003435363738393031323334353637383915
:10376000303132333435363738393031323334351D
:1037700036373839303132333536373839303132FF
:1037800033343536373839303132333435363738EB
:1037900039303132333435363738393031323334E9
:1037A00036373839303132333435363738393031CD
:1037B00032333435363738393031323334353637C1
:1037C00038393031323334353738393031323334B7
:1037D0003536373839303132333435363738393099
:1037E0003132333435363738393031323334353697
:1037F0003839303132333435363738393031323385
:103800003435363738393031323334353637383964
:10381000303132333435363739303132333435366E
:103820003738393031323334353637383930313250
:10383000333435363738393031323334353637383A
:10384000303132333435363738393031323334353C
:10385000363738393031323334353637383930311C
:103860003233343536373839313233343536373808
:103870003930313233343536373839303132333408
:1038800035363738393031323334353637383930E8
:1038900032333435363738393031323334353637E0
:1038A00038393031323334353637383930313233D4
:1038B00034353637383930313334353637383930B6
:1038C00031323334353637383930313233343536B6
:1038D00037383930313233343536373839303132A0
:1038E0003435363738393031323334353637383984
:1038F000303132333435363738393031323334358C
:10390000363738393031323335363738393031326D
:103910003334353637383930313233343536373859
:103920003930313233343536373839303132333457
:10393000363738393031323334353637383930313B
:10394000323334353637383930313233343536372F
:103950003839303132333435373839303132333425
:103960003536373839303132333435363738393007
:103970003132333435363738393031323334353605
:1039800038393031323334353637383930313233F3
:1039900034353637383930313233343536373839D3
:1039A00030313233343536373930313233343536DD
:1039B00037383930313233343536373839303132BF
:1039C00033343536373839303132333435363738A9
:1039D00030313233343536373839303132333435AB
:1039E000363738393031323334353637383930318B
:1039F0003233343536373839313233343536373877
:103A00003930313233343536373839303132333476
:103A10003536373839303132333435363738393056
:103A2000323334353637383930313233343536374E
:103A30003839303132333435363738393031323342
:103A40003435363738393031333435363738393024
:103A50003132333435363738393031323334353624
:103A6000373839303132333435363738393031320E
:103A700034353637383930313233343536373839F2
:103A800030313233343536373839303132333435FA
:103A900036373839303132333536373839303132DC
:103AA00033343536373839303132333435363738C8
:103AB00039303132333435363738393031323334C6
:103AC00036373839303132333435363738393031AA
:103AD000323334353637383930313233343536379E
:103AE0003839303132333435373839303132333494
:103AF0003536373839303132333435363738393076
:103B00003132333435363738393031323334353673
:103B10003839303132333435363738393031323361
:103B20003435363738393031323334353637383941
:103B3000303132333435363739303132333435364B
:103B4000373839303132333435363738393031322D
:103B50003334353637383930313233343536373817
:103B60003031323334353637383930313233343519
:103B700036373839303132333435363738393031F9
:103B800032333435363738393132333435363738E5
:103B900039303132333435363738393031323334E5
:103BA00035363738393031323334353637383930C5
:103BB00032333435363738393031323334353637BD
:103BC00038393031323334353637383930313233B1
:103BD0003435363738393031333435363738393093
:103BE0003132333435363738393031323334353693
:103BF000373839303132333435363738393031327D
:103C00003435363738393031323334353637383960
:103C10003031323334353637383930313233343568
:103C2000363738393031323335363738393031324A
:103C30003334353637383930313233343536373836
:103C40003930313233343536373839303132333434
:103C50003637383930313233343536373839303118
:103C6000323334353637383930313233343536370C
:103C70003839303132333435373839303132333402
:103C800035363738393031323334353637383930E4
:103C900031323334353637383930313233343536E2
:103CA00038393031323334353637383930313233D0
:103CB00034353637383930313233343536373839B0
:103CC00030313233343536373930313233343536BA
:103CD000373839303132333435363738393031329C
:103CE0003334353637383930313233343536373886
:103CF0003031323334353637383930313233343588
:103D00003637383930313233343536373839303167
:103D10003233343536373839313233343536373853
:103D20003930313233343536373839303132333453
:103D30003536373839303132333435363738393033
:103D4000323334353637383930313233343536372B
:103D5000383930313233343536373839303132331F
:103D60003435363738393031333435363738393001
:103D70003132333435363738393031323334353601
:103D800037383930313233343536373839303132EB
:103D900034353637383930313233343536373839CF
:103DA00030313233343536373839303132333435D7
:103DB00036373839303132333536373839303132B9
:103DC00033343536373839303132333435363738A5
:103DD00039303132333435363738393031323334A3
:103DE0003637383930313233343536373839303187
:103DF000323334353637383930313233343536377B
:103E00003839303132333435373839303132333470
:103E10003536373839303132333435363738393052
:103E20003132333435363738393031323334353650
:103E3000383930313233343536373839303132333E
:103E4000343536373839303132333435363738391E
:103E50003031323334353637393031323334353628
:103E6000373839303132333435363738393031320A
:103E700033343536373839303132333435363738F4
:103E800030313233343536373839303132333435F6
:103E900036373839303132333435363738393031D6
:103EA00032333435363738393132333435363738C2
:103EB00039303132333435363738393031323334C2
:103EC00035363738393031323334353637383930A2
:103ED000323334353637383930313233343536379A
:103EE000383930313233343536373839303132338E
:103EF0003435363738393031333435363738393070
:103F0000313233343536373839303132333435366F
:103F10003738393031323334353637383930313259
:103F2000343536373839303132333435363738393D
:103F30003031323334353637383930313233343545
:103F40003637383930313233353637383930313227
:103F50003334353637383930313233343536373813
:103F60003930313233343536373839303132333411
:103F700036373839303132333435363738393031F5
:103F800032333435363738393031323334353637E9
:103F900038393031323334353738393031323334DF
:103FA00035363738393031323334353637383930C1
:103FB00031323334353637383930313233343536BF
:103FC00038393031323334353637383930313233AD
:103FD000343536373839303132333435363738398D
:103FE0003031323334353637393031323334353697
:103FF0003738393031323334353637383930313279
:104000003334353637383930313233343536373862
:104010003031323334353637383930313233343564
:104020003637383930313233343536373839303144
:104030003233343536373839313233343536373830
:104040003930313233343536373839303132333430
:104050003536373839303132333435363738393010
:104060003233343536373839303132333435363708
:1040700038393031323334353637383930313233FC
:1040800034353637383930313334353637383930DE
:1040900031323334353637383930313233343536DE
:1040A00037383930313233343536373839303132C8
:1040B00034353637383930313233343536373839AC
:1040C00030313233343536373839303132333435B4
:1040D0003637383930313233353637383930313296
:1040E0003334353637383930313233343536373882
:1040F0003930313233343536373839303132333480
:104100003637383930313233343536373839303163
:104110003233343536373839303132333435363757
:10412000383930313233343537383930313233344D
:10413000353637383930313233343536373839302F
:10414000313233343536373839303132333435362D
:10415000383930313233343536373839303132331B
:1041600034353637383930313233343536373839FB
:104170003031323334353637393031323334353605
:1041800037383930313233343536373839303132E7
:1041900033343536373839303132333435363738D1
:1041A00030313233343536373839303132333435D3
:1041B00036373839303132333435363738393031B3
:1041C000323334353637383931323334353637389F
:1041D000393031323334353637383930313233349F
:1041E000353637383930313233343536373839307F
:1041F0003233343536373839303132333435363777
:10420000383930313233343536373839303132336A
:10421000343536373839303133343536373839304C
:10422000313233343536373839303132333435364C
:104230003738393031323334353637383930313236
:10424000343536373839303132333435363738391A
:104250003031323334353637383930313233343522
:104260003637383930313233353637383930313204
:1042700033343536373839303132333435363738F0
:1042800039303132333435363738393031323334EE
:1042900036373839303132333435363738393031D2
:1042A00032333435363738393031323334353637C6
:1042B00038393031323334353738393031323334BC
:1042C000353637383930313233343536373839309E
:1042D000313233343536373839303132333435369C
:1042E000383930313233343536373839303132338A
:1042F000343536373839303132333435363738396A
:104300003031323334353637393031323334353673
:104310003738393031323334353637383930313255
:10432000333435363738393031323334353637383F
:104330003031323334353637383930313233343541
:104340003637383930313233343536373839303121
:10435000323334353637383931323334353637380D
:10436000393031323334353637383930313233340D
:1043700035363738393031323334353637383930ED
:1043800032333435363738393031323334353637E5
:1043900038393031323334353637383930313233D9
:1043A00034353637383930313334353637383930BB
:1043B00031323334353637383930313233343536BB
:1043C00037383930313233343536373839303132A5
:1043D0003435363738393031323334353637383989
:1043E0003031323334353637383930313233343591
:1043F0003637383930313233353637383930313273
:10440000333435363738393031323334353637385E
:10441000393031323334353637383930313233345C
:104420003637383930313233343536373839303140
:104430003233343536373839303132333435363734
:10444000383930313233343537383930313233342A
:10445000353637383930313233343536373839300C
:10446000313233343536373839303132333435360A
:1044700038393031323334353637383930313233F8
:1044800034353637383930313233343536373839D8
:1044900030313233343536373930313233343536E2
:1044A00037383930313233343536373839303132C4
:1044B00033343536373839303132333435363738AE
:1044C00030313233343536373839303132333435B0
:1044D0003637383930313233343536373839303190
:1044E000323334353637383931323334353637387C
:1044F000393031323334353637383930313233347C
:10450000353637383930313233343536373839305B
:104510003233343536373839303132333435363753
:104520003839303132333435363738393031323347
:104530003435363738393031333435363738393029
:104540003132333435363738393031323334353629
:104550003738393031323334353637383930313213
:1045600034353637383930313233343536373839F7
:1045700030313233343536373839303132333435FF
:1045800036373839303132333536373839303132E1
:1045900033343536373839303132333435363738CD
:1045A00039303132333435363738393031323334CB
:1045B00036373839303132333435363738393031AF
:1045C00032333435363738393031323334353637A3
:1045D0003839303132333435373839303132333499
:1045E000353637383930313233343536373839307B
:1045F0003132333435363738393031323334353679
:104600003839303132333435363738393031323366
:104610003435363738393031323334353637383946
:104620003031323334353637393031323334353650
:104630003738393031323334353637383930313232
:10464000333435363738393031323334353637381C
:10465000303132333435363738393031323334351E
:1046600036373839303132333435363738393031FE
:1046700032333435363738393132333435363738EA
:1046800039303132333435363738393031323334EA
:1046900035363738393031323334353637383930CA
:1046A00032333435363738393031323334353637C2
:1046B00038393031323334353637383930313233B6
:1046C0003435363738393031333435363738393098
:1046D0003132333435363738393031323334353698
:1046E0003738393031323334353637383930313282
:1046F0003435363738393031323334353637383966
:10470000303132333435363738393031323334356D
:10471000363738393031323335363738393031324F
:10472000333435363738393031323334353637383B
:104730003930313233343536373839303132333439
:10474000363738393031323334353637383930311D
:104750003233343536373839303132333435363711
:104760003839303132333435373839303132333407
:1047700035363738393031323334353637383930E9
:1047800031323334353637383930313233343536E7
:1047900038393031323334353637383930313233D5
:1047A00034353637383930313233343536373839B5
:1047B00030313233343536373930313233343536BF
:1047C00037383930313233343536373839303132A1
:1047D000333435363738393031323334353637388B
:1047E000303132333435363738393031323334358D
:1047F000363738393031323334353637383930316D
:104800003233343536373839313233343536373858
:104810003930313233343536373839303132333458
:104820003536373839303132333435363738393038
:104830003233343536373839303132333435363730
:104840003839303132333435363738393031323324
:104850003435363738393031333435363738393006
:104860003132333435363738393031323334353606
:1048700037383930313233343536373839303132F0
:1048800034353637383930313233343536373839D4
:1048900030313233343536373839303132333435DC
:1048A00036373839303132333536373839303132BE
:1048B00033343536373839303132333435363738AA
:1048C00039303132333435363738393031323334A8
:1048D000363738393031323334353637383930318C
:1048E0003233343536373839303132333435363780
:1048F0003839303132333435373839303132333476
:104900003536373839303132333435363738393057
:104910003132333435363738393031323334353655
:104920003839303132333435363738393031323343
:104930003435363738393031323334353637383923
:10494000303132333435363739303132333435362D
:10495000373839303132333435363738393031320F
:1049600033343536373839303132333435363738F9
:1049700030313233343536373839303132333435FB
:1049800036373839303132333435363738393031DB
:1049900032333435363738393132333435363738C7
:1049A00039303132333435363738393031323334C7
:1049B00035363738393031323334353637383930A7
:1049C000323334353637383930313233343536379F
:1049D0003839303132333435363738393031323393
:1049E0003435363738393031333435363738393075
:1049F0003132333435363738393031323334353675
:104A0000373839303132333435363738393031325E
:104A10003435363738393031323334353637383942
:104A2000303132333435363738393031323334354A
:104A3000363738393031323335363738393031322C
:104A40003334353637383930313233343536373818
:104A50003930313233343536373839303132333416
:104A600036373839303132333435363738393031FA
:104A700032333435363738393031323334353637EE
:104A800038393031323334353738393031323334E4
:104A900035363738393031323334353637383930C6
:104AA00031323334353637383930313233343536C4
:104AB00038393031323334353637383930313233B2
:104AC0003435363738393031323334353637383992
:104AD000303132333435363739303132333435369C
:104AE000373839303132333435363738393031327E
:104AF0003334353637383930313233343536373868
:104B00003031323334353637383930313233343569
:104B10003637383930313233343536373839303149
:104B20003233343536373839313233343536373835
:104B30003930313233343536373839303132333435
:104B40003536373839303132333435363738393015
:104B5000323334353637383930313233343536370D
:104B60003839303132333435363738393031323301
:104B700034353637383930313334353637383930E3
:104B800031323334353637383930313233343536E3
:104B900037383930313233343536373839303132CD
:104BA00034353637383930313233343536373839B1
:104BB00030313233343536373839303132333435B9
:104BC000363738393031323335363738393031329B
:104BD0003334353637383930313233343536373887
:104BE0003930313233343536373839303132333485
:104BF0003637383930313233343536373839303169
:104C0000323334353637383930313233343536375C
:104C10003839303132333435373839303132333452
:104C20003536373839303132333435363738393034
:104C30003132333435363738393031323334353632
:104C40003839303132333435363738393031323320
:104C50003435363738393031323334353637383900
:104C6000303132333435363739303132333435360A
:104C700037383930313233343536373839303132EC
:104C800033343536373839303132333435363738D6
:104C900030313233343536373839303132333435D8
:104CA00036373839303132333435363738393031B8
:104CB00032333435363738393132333435363738A4
:104CC00039303132333435363738393031323334A4
:104CD0003536373839303132333435363738393084
:104CE000323334353637383930313233343536377C
:104CF0003839303132333435363738393031323370
:104D00003435363738393031333435363738393051
:104D10003132333435363738393031323334353651
:104D2000373839303132333435363738393031323B
:104D3000343536373839303132333435363738391F
:104D40003031323334353637383930313233343527
:104D50003637383930313233353637383930313209
:104D600033343536373839303132333435363738F5
:104D700039303132333435363738393031323334F3
:104D800036373839303132333435363738393031D7
:104D900032333435363738393031323334353637CB
:104DA00038393031323334353738393031323334C1
:104DB00035363738393031323334353637383930A3
:104DC00031323334353637383930313233343536A1
:104DD000383930313233343536373839303132338F
:104DE000343536373839303132333435363738396F
:104DF0003031323334353637393031323334353679
:104E0000373839303132333435363738393031325A
:104E10003334353637383930313233343536373844
:104E20003031323334353637383930313233343546
:104E30003637383930313233343536373839303126
:104E40003233343536373839313233343536373812
:104E50003930313233343536373839303132333412
:104E600035363738393031323334353637383930F2
:104E700032333435363738393031323334353637EA
:104E800038393031323334353637383930313233DE
:104E900034353637383930313334353637383930C0
:104EA00031323334353637383930313233343536C0
:104EB00037383930313233343536373839303132AA
:104EC000343536373839303132333435363738398E
:104ED0003031323334353637383930313233343596
:104EE0003637383930313233353637383930313278
:104EF0003334353637383930313233343536373864
:104F00003930313233343536373839303132333461
:104F10003637383930313233343536373839303145
:104F20003233343536373839303132333435363739
:104F3000383930313233343537383930313233342F
:104F40003536373839303132333435363738393011
:104F5000313233343536373839303132333435360F
:104F600038393031323334353637383930313233FD
:104F700034353637383930313233343536373839DD
:104F800030313233343536373930313233343536E7
:104F900037383930313233343536373839303132C9
:104FA00033343536373839303132333435363738B3
:104FB00030313233343536373839303132333435B5
:104FC0003637383930313233343536373839303195
:104FD0003233343536373839313233343536373881
:104FE0003930313233343536373839303132333481
:104FF0003536373839303132333435363738393061
:105000003233343536373839303132333435363758
:10501000383930313233343536373839303132334C
:10502000343536373839303133343536373839302E
:10503000313233343536373839303132333435362E
:105040003738393031323334353637383930313218
:1050500034353637383930313233343536373839FC
:105060003031323334353637383930313233343504
:1050700036373839303132333536373839303132E6
:1050800033343536373839303132333435363738D2
:1050900039303132333435363738393031323334D0
:1050A00036373839303132333435363738393031B4
:1050B00032333435363738393031323334353637A8
:1050C000383930313233343537383930313233349E
:1050D0003536373839303132333435363738393080
:1050E000313233343536373839303132333435367E
:1050F000383930313233343536373839303132336C
:10510000343536373839303132333435363738394B
:105110003031323334353637393031323334353655
:105120003738393031323334353637383930313237
:105130003334353637383930313233343536373821
:105140003031323334353637383930313233343523
:105150003637383930313233343536373839303103
:1051600032333435363738393132333435363738EF
:1051700039303132333435363738393031323334EF
:1051800035363738393031323334353637383930CF
:1051900032333435363738393031323334353637C7
:1051A00038393031323334353637383930313233BB
:1051B000343536373839303133343536373839309D
:1051C000313233343536373839303132333435369D
:1051D0003738393031323334353637383930313287
:1051E000343536373839303132333435363738396B
:1051F0003031323334353637383930313233343573
:105200003637383930313233353637383930313254
:105210003334353637383930313233343536373840
:10522000393031323334353637383930313233343E
:105230003637383930313233343536373839303122
:105240003233343536373839303132333435363716
:10525000383930313233343537383930313233340C
:1052600035363738393031323334353637383930EE
:1052700031323334353637383930313233343536EC
:1052800038393031323334353637383930313233DA
:1052900034353637383930313233343536373839BA
:1052A00030313233343536373930313233343536C4
:1052B00037383930313233343536373839303132A6
:1052C0003334353637383930313233343536373890
:1052D0003031323334353637383930313233343592
:1052E0003637383930313233343536373839303172
:1052F000323334353637383931323334353637385E
:10530000393031323334353637383930313233345D
:10531000353637383930313233343536373839303D
:105320003233343536373839303132333435363735
:105330003839303132333435363738393031323329
:10534000343536373839303133343536373839300B
:10535000313233343536373839303132333435360B
:1053600037383930313233343536373839303132F5
:1053700034353637383930313233343536373839D9
:1053800030313233343536373839303132333435E1
:1053900036373839303132333536373839303132C3
:1053A00033343536373839303132333435363738AF
:1053B00039303132333435363738393031323334AD
:1053C0003637383930313233343536373839303191
:1053D0003233343536373839303132333435363785
:1053E000383930313233343537383930313233347B
:1053F000353637383930313233343536373839305D
:10540000313233343536373839303132333435365A
:105410003839303132333435363738393031323348
:105420003435363738393031323334353637383928
:105430003031323334353637393031323334353632
:105440003738393031323334353637383930313214
:1054500033343536373839303132333435363738FE
:105460003031323334353637383930313233343500
:1054700036373839303132333435363738393031E0
:1054800032333435363738393132333435363738CC
:1054900039303132333435363738393031323334CC
:1054A00035363738393031323334353637383930AC
:1054B00032333435363738393031323334353637A4
:1054C0003839303132333435363738393031323398
:1054D000343536373839303133343536373839307A
:1054E000313233343536373839303132333435367A
:1054F0003738393031323334353637383930313264
:105500003435363738393031323334353637383947
:10551000303132333435363738393031323334354F
:105520003637383930313233353637383930313231
:10553000333435363738393031323334353637381D
:10554000393031323334353637383930313233341B
:1055500036373839303132333435363738393031FF
:1055600032333435363738393031323334353637F3
:1055700038393031323334353738393031323334E9
:1055800035363738393031323334353637383930CB
:1055900031323334353637383930313233343536C9
:1055A00038393031323334353637383930313233B7
:1055B0003435363738393031323334353637383997
:1055C00030313233343536373930313233343536A1
:1055D0003738393031323334353637383930313283
:1055E000333435363738393031323334353637386D
:1055F000303132333435363738393031323334356F
:10560000363738393031323334353637383930314E
:10561000323334353637383931323334353637383A
:10562000393031323334353637383930313233343A
:10563000353637383930313233343536373839301A
:105640003233343536373839303132333435363712
:105650003839303132333435363738393031323306
:1056600034353637383930313334353637383930E8
:1056700031323334353637383930313233343536E8
:1056800037383930313233343536373839303132D2
:1056900034353637383930313233343536373839B6
:1056A00030313233343536373839303132333435BE
:1056B00036373839303132333536373839303132A0
:1056C000333435363738393031323334353637388C
:1056D000393031323334353637383930313233348A
:1056E000363738393031323334353637383930316E
:1056F0003233343536373839303132333435363762
:105700003839303132333435373839303132333457
:105710003536373839303132333435363738393039
:105720003132333435363738393031323334353637
:105730003839303132333435363738393031323325
:105740003435363738393031323334353637383905
:10575000303132333435363739303132333435360F
:1057600037383930313233343536373839303132F1
:1057700033343536373839303132333435363738DB
:1057800030313233343536373839303132333435DD
:1057900036373839303132333435363738393031BD
:1057A00032333435363738393132333435363738A9
:1057B00039303132333435363738393031323334A9
:1057C0003536373839303132333435363738393089
:1057D0003233343536373839303132333435363781
:1057E0003839303132333435363738393031323375
:1057F0003435363738393031333435363738393057
:105800003132333435363738393031323334353656
:105810003738393031323334353637383930313240
:105820003435363738393031323334353637383924
:10583000303132333435363738393031323334352C
:10584000363738393031323335363738393031320E
:1058500033343536373839303132333435363738FA
:1058600039303132333435363738393031323334F8
:1058700036373839303132333435363738393031DC
:1058800032333435363738393031323334353637D0
:1058900038393031323334353738393031323334C6
:1058A00035363738393031323334353637383930A8
:1058B00031323334353637383930313233343536A6
:1058C0003839303132333435363738393031323394
:1058D0003435363738393031323334353637383974
:1058E000303132333435363739303132333435367E
:1058F0003738393031323334353637383930313260
:105900003334353637383930313233343536373849
:10591000303132333435363738393031323334354B
:10592000363738393031323334353637383930312B
:105930003233343536373839313233343536373817
:105940003930313233343536373839303132333417
:1059500035363738393031323334353637383930F7
:1059600032333435363738393031323334353637EF
:1059700038393031323334353637383930313233E3
:1059800034353637383930313334353637383930C5
:1059900031323334353637383930313233343536C5
:1059A00037383930313233343536373839303132AF
:1059B0003435363738393031323334353637383993
:1059C000303132333435363738393031323334359B
:1059D000363738393031323335363738393031327D
:1059E0003334353637383930313233343536373869
:1059F0003930313233343536373839303132333467
:105A0000363738393031323334353637383930314A
:105A1000323334353637383930313233343536373E
:105A20003839303132333435373839303132333434
:105A30003536373839303132333435363738393016
:105A40003132333435363738393031323334353614
:105A50003839303132333435363738393031323302
:105A600034353637383930313233343536373839E2
:105A700030313233343536373930313233343536EC
:105A800037383930313233343536373839303132CE
:105A900033343536373839303132333435363738B8
:105AA00030313233343536373839303132333435BA
:105AB000363738393031323334353637383930319A
:105AC0003233343536373839313233343536373886
:105AD0003930313233343536373839303132333486
